{
  "_format": "hh-sol-artifact-1",
  "contractName": "NFTMarketplace",
  "sourceName": "contracts/NFTMarketplace.sol",
  "abi": [
    {
      "inputs": [],
      "stateMutability": "nonpayable",
      "type": "constructor"
    },
    {
      "anonymous": false,
      "inputs": [
        {
          "indexed": false,
          "internalType": "uint256",
          "name": "listingId",
          "type": "uint256"
        },
        {
          "indexed": false,
          "internalType": "address",
          "name": "contractAddress",
          "type": "address"
        },
        {
          "indexed": false,
          "internalType": "uint256",
          "name": "tokenId",
          "type": "uint256"
        },
        {
          "indexed": false,
          "internalType": "uint256",
          "name": "amount",
          "type": "uint256"
        },
        {
          "indexed": false,
          "internalType": "address",
          "name": "seller",
          "type": "address"
        },
        {
          "indexed": false,
          "internalType": "address",
          "name": "buyer",
          "type": "address"
        }
      ],
      "name": "BuyNFT",
      "type": "event"
    },
    {
      "anonymous": false,
      "inputs": [
        {
          "indexed": false,
          "internalType": "uint256",
          "name": "listingId",
          "type": "uint256"
        }
      ],
      "name": "DeactivatedListing",
      "type": "event"
    },
    {
      "anonymous": false,
      "inputs": [
        {
          "indexed": false,
          "internalType": "uint256",
          "name": "listingId",
          "type": "uint256"
        },
        {
          "indexed": false,
          "internalType": "address",
          "name": "contractAddress",
          "type": "address"
        },
        {
          "indexed": false,
          "internalType": "uint256",
          "name": "tokenId",
          "type": "uint256"
        },
        {
          "indexed": false,
          "internalType": "uint256",
          "name": "amount",
          "type": "uint256"
        },
        {
          "indexed": false,
          "internalType": "address",
          "name": "seller",
          "type": "address"
        }
      ],
      "name": "SellNFT",
      "type": "event"
    },
    {
      "inputs": [
        {
          "internalType": "address",
          "name": "contractAddress",
          "type": "address"
        },
        {
          "internalType": "uint256",
          "name": "tokenId",
          "type": "uint256"
        }
      ],
      "name": "buy",
      "outputs": [],
      "stateMutability": "payable",
      "type": "function"
    },
    {
      "inputs": [
        {
          "internalType": "uint256",
          "name": "listingId",
          "type": "uint256"
        }
      ],
      "name": "buy",
      "outputs": [],
      "stateMutability": "payable",
      "type": "function"
    },
    {
      "inputs": [
        {
          "internalType": "uint256",
          "name": "listingId",
          "type": "uint256"
        }
      ],
      "name": "deactivate",
      "outputs": [],
      "stateMutability": "nonpayable",
      "type": "function"
    },
    {
      "inputs": [
        {
          "internalType": "address",
          "name": "contractAddress",
          "type": "address"
        },
        {
          "internalType": "uint256",
          "name": "tokenId",
          "type": "uint256"
        }
      ],
      "name": "deactivate",
      "outputs": [],
      "stateMutability": "nonpayable",
      "type": "function"
    },
    {
      "inputs": [
        {
          "internalType": "address",
          "name": "contractAddress",
          "type": "address"
        },
        {
          "internalType": "uint256",
          "name": "tokenId",
          "type": "uint256"
        },
        {
          "internalType": "uint256",
          "name": "amount",
          "type": "uint256"
        }
      ],
      "name": "sell",
      "outputs": [],
      "stateMutability": "nonpayable",
      "type": "function"
    }
  ],
  "bytecode": "0x608060405234801561001057600080fd5b50611a05806100206000396000f3fe60806040526004361061004a5760003560e01c80636a2724621461004f578063916b9bef14610078578063cce7ec13146100a1578063d96a094a146100bd578063f1218c1b146100d9575b600080fd5b34801561005b57600080fd5b5061007660048036038101906100719190611344565b610102565b005b34801561008457600080fd5b5061009f600480360381019061009a91906113bc565b610866565b005b6100bb60048036038101906100b69190611308565b610bdf565b005b6100d760048036038101906100d291906113bc565b610c42565b005b3480156100e557600080fd5b5061010060048036038101906100fb9190611308565b611204565b005b8273ffffffffffffffffffffffffffffffffffffffff166301ffc9a76380ac58cd60e01b6040518263ffffffff1660e01b81526004016101429190611561565b60206040518083038186803b15801561015a57600080fd5b505afa15801561016e573d6000803e3d6000fd5b505050506040513d601f19601f820116820180604052508101906101929190611393565b6101d1576040517f08c379a00000000000000000000000000000000000000000000000000000000081526004016101c8906115fc565b60405180910390fd5b60008390503373ffffffffffffffffffffffffffffffffffffffff168173ffffffffffffffffffffffffffffffffffffffff16636352211e856040518263ffffffff1660e01b8152600401610226919061167c565b60206040518083038186803b15801561023e57600080fd5b505afa158015610252573d6000803e3d6000fd5b505050506040513d601f19601f8201168201806040525081019061027691906112df565b73ffffffffffffffffffffffffffffffffffffffff16146102cc576040517f08c379a00000000000000000000000000000000000000000000000000000000081526004016102c3906115bc565b60405180910390fd5b3073ffffffffffffffffffffffffffffffffffffffff168173ffffffffffffffffffffffffffffffffffffffff1663081812fc856040518263ffffffff1660e01b815260040161031c919061167c565b60206040518083038186803b15801561033457600080fd5b505afa158015610348573d6000803e3d6000fd5b505050506040513d601f19601f8201168201806040525081019061036c91906112df565b73ffffffffffffffffffffffffffffffffffffffff16146103c2576040517f08c379a00000000000000000000000000000000000000000000000000000000081526004016103b99061161c565b60405180910390fd5b6000600160008673ffffffffffffffffffffffffffffffffffffffff1673ffffffffffffffffffffffffffffffffffffffff16815260200190815260200160002060008581526020019081526020016000205490506000600260008381526020019081526020016000206040518060e00160405290816000820160009054906101000a900473ffffffffffffffffffffffffffffffffffffffff1673ffffffffffffffffffffffffffffffffffffffff1673ffffffffffffffffffffffffffffffffffffffff16815260200160018201548152602001600282015481526020016003820160009054906101000a900473ffffffffffffffffffffffffffffffffffffffff1673ffffffffffffffffffffffffffffffffffffffff1673ffffffffffffffffffffffffffffffffffffffff1681526020016004820160009054906101000a900473ffffffffffffffffffffffffffffffffffffffff1673ffffffffffffffffffffffffffffffffffffffff1673ffffffffffffffffffffffffffffffffffffffff1681526020016004820160149054906101000a900460ff161515151581526020016004820160159054906101000a900460ff1615151515815250509050600082148061059657508060c00151155b806105d157503373ffffffffffffffffffffffffffffffffffffffff16816060015173ffffffffffffffffffffffffffffffffffffffff1614155b806105dd57508060a001515b61061c576040517f08c379a00000000000000000000000000000000000000000000000000000000081526004016106139061163c565b60405180910390fd5b60006002600084815260200190815260200160002060040160156101000a81548160ff0219169083151502179055506106556000611267565b6000610661600061127d565b90506040518060e001604052808873ffffffffffffffffffffffffffffffffffffffff1681526020018781526020018681526020013373ffffffffffffffffffffffffffffffffffffffff168152602001600073ffffffffffffffffffffffffffffffffffffffff168152602001600015158152602001600115158152506002600083815260200190815260200160002060008201518160000160006101000a81548173ffffffffffffffffffffffffffffffffffffffff021916908373ffffffffffffffffffffffffffffffffffffffff160217905550602082015181600101556040820151816002015560608201518160030160006101000a81548173ffffffffffffffffffffffffffffffffffffffff021916908373ffffffffffffffffffffffffffffffffffffffff16021790555060808201518160040160006101000a81548173ffffffffffffffffffffffffffffffffffffffff021916908373ffffffffffffffffffffffffffffffffffffffff16021790555060a08201518160040160146101000a81548160ff02191690831515021790555060c08201518160040160156101000a81548160ff0219169083151502179055509050507f805160880a819185cfa2affccea4801947090ea7049f37c2c814f04e2f7b55f58188888833604051610855959493929190611697565b60405180910390a150505050505050565b6002600082815260200190815260200160002060040160159054906101000a900460ff166108c9576040517f08c379a00000000000000000000000000000000000000000000000000000000081526004016108c09061165c565b60405180910390fd5b6000600260008381526020019081526020016000206040518060e00160405290816000820160009054906101000a900473ffffffffffffffffffffffffffffffffffffffff1673ffffffffffffffffffffffffffffffffffffffff1673ffffffffffffffffffffffffffffffffffffffff16815260200160018201548152602001600282015481526020016003820160009054906101000a900473ffffffffffffffffffffffffffffffffffffffff1673ffffffffffffffffffffffffffffffffffffffff1673ffffffffffffffffffffffffffffffffffffffff1681526020016004820160009054906101000a900473ffffffffffffffffffffffffffffffffffffffff1673ffffffffffffffffffffffffffffffffffffffff1673ffffffffffffffffffffffffffffffffffffffff1681526020016004820160149054906101000a900460ff161515151581526020016004820160159054906101000a900460ff16151515158152505090506000816000015190503373ffffffffffffffffffffffffffffffffffffffff16826060015173ffffffffffffffffffffffffffffffffffffffff161480610b3557503373ffffffffffffffffffffffffffffffffffffffff168173ffffffffffffffffffffffffffffffffffffffff16636352211e84602001516040518263ffffffff1660e01b8152600401610acd919061167c565b60206040518083038186803b158015610ae557600080fd5b505afa158015610af9573d6000803e3d6000fd5b505050506040513d601f19601f82011682018060405250810190610b1d91906112df565b73ffffffffffffffffffffffffffffffffffffffff16145b610b74576040517f08c379a0000000000000000000000000000000000000000000000000000000008152600401610b6b9061157c565b60405180910390fd5b60006002600085815260200190815260200160002060040160156101000a81548160ff0219169083151502179055507f0b601561a05f54f96321a092bc7cd296a240caea2d982ac390fe02b5fbf2942d83604051610bd2919061167c565b60405180910390a1505050565b6000600160008473ffffffffffffffffffffffffffffffffffffffff1673ffffffffffffffffffffffffffffffffffffffff1681526020019081526020016000206000838152602001908152602001600020549050610c3d81610c42565b505050565b6000811415610c86576040517f08c379a0000000000000000000000000000000000000000000000000000000008152600401610c7d9061165c565b60405180910390fd5b6000600260008381526020019081526020016000206040518060e00160405290816000820160009054906101000a900473ffffffffffffffffffffffffffffffffffffffff1673ffffffffffffffffffffffffffffffffffffffff1673ffffffffffffffffffffffffffffffffffffffff16815260200160018201548152602001600282015481526020016003820160009054906101000a900473ffffffffffffffffffffffffffffffffffffffff1673ffffffffffffffffffffffffffffffffffffffff1673ffffffffffffffffffffffffffffffffffffffff1681526020016004820160009054906101000a900473ffffffffffffffffffffffffffffffffffffffff1673ffffffffffffffffffffffffffffffffffffffff1673ffffffffffffffffffffffffffffffffffffffff1681526020016004820160149054906101000a900460ff161515151581526020016004820160159054906101000a900460ff16151515158152505090506000816000015190508160c001518015610ec957508073ffffffffffffffffffffffffffffffffffffffff16636352211e83602001516040518263ffffffff1660e01b8152600401610e46919061167c565b60206040518083038186803b158015610e5e57600080fd5b505afa158015610e72573d6000803e3d6000fd5b505050506040513d601f19601f82011682018060405250810190610e9691906112df565b73ffffffffffffffffffffffffffffffffffffffff16826060015173ffffffffffffffffffffffffffffffffffffffff16145b8015610f8c57503073ffffffffffffffffffffffffffffffffffffffff168173ffffffffffffffffffffffffffffffffffffffff1663081812fc84602001516040518263ffffffff1660e01b8152600401610f24919061167c565b60206040518083038186803b158015610f3c57600080fd5b505afa158015610f50573d6000803e3d6000fd5b505050506040513d601f19601f82011682018060405250810190610f7491906112df565b73ffffffffffffffffffffffffffffffffffffffff16145b610fcb576040517f08c379a0000000000000000000000000000000000000000000000000000000008152600401610fc29061165c565b60405180910390fd5b3373ffffffffffffffffffffffffffffffffffffffff16826060015173ffffffffffffffffffffffffffffffffffffffff16141561103e576040517f08c379a00000000000000000000000000000000000000000000000000000000081526004016110359061159c565b60405180910390fd5b34826040015114611084576040517f08c379a000000000000000000000000000000000000000000000000000000000815260040161107b906115dc565b60405180910390fd5b8073ffffffffffffffffffffffffffffffffffffffff166323b872dd83606001513385602001516040518463ffffffff1660e01b81526004016110c99392919061152a565b600060405180830381600087803b1580156110e357600080fd5b505af11580156110f7573d6000803e3d6000fd5b5050505060016002600085815260200190815260200160002060040160146101000a81548160ff02191690831515021790555060006002600085815260200190815260200160002060040160156101000a81548160ff021916908315150217905550336002600085815260200190815260200160002060040160006101000a81548173ffffffffffffffffffffffffffffffffffffffff021916908373ffffffffffffffffffffffffffffffffffffffff1602179055507f3652c5646ce1266293f46c99485dc319b5bbf2376b29349655c91098f931cbfd838360000151846020015185604001518660600151336040516111f7969594939291906116ea565b60405180910390a1505050565b6000600160008473ffffffffffffffffffffffffffffffffffffffff1673ffffffffffffffffffffffffffffffffffffffff168152602001908152602001600020600083815260200190815260200160002054905061126281610866565b505050565b6001816000016000828254019250508190555050565b600081600001549050919050565b60008135905061129a8161198a565b92915050565b6000815190506112af8161198a565b92915050565b6000815190506112c4816119a1565b92915050565b6000813590506112d9816119b8565b92915050565b6000602082840312156112f157600080fd5b60006112ff848285016112a0565b91505092915050565b6000806040838503121561131b57600080fd5b60006113298582860161128b565b925050602061133a858286016112ca565b9150509250929050565b60008060006060848603121561135957600080fd5b60006113678682870161128b565b9350506020611378868287016112ca565b9250506040611389868287016112ca565b9150509250925092565b6000602082840312156113a557600080fd5b60006113b3848285016112b5565b91505092915050565b6000602082840312156113ce57600080fd5b60006113dc848285016112ca565b91505092915050565b6113ee8161175c565b82525050565b6113fd8161177a565b82525050565b600061141060228361174b565b915061141b826117d0565b604082019050919050565b6000611433601d8361174b565b915061143e8261181f565b602082019050919050565b600061145660328361174b565b915061146182611848565b604082019050919050565b6000611479600d8361174b565b915061148482611897565b602082019050919050565b600061149c60278361174b565b91506114a7826118c0565b604082019050919050565b60006114bf601e8361174b565b91506114ca8261190f565b602082019050919050565b60006114e2601b8361174b565b91506114ed82611938565b602082019050919050565b600061150560118361174b565b915061151082611961565b602082019050919050565b611524816117c6565b82525050565b600060608201905061153f60008301866113e5565b61154c60208301856113e5565b611559604083018461151b565b949350505050565b600060208201905061157660008301846113f4565b92915050565b6000602082019050818103600083015261159581611403565b9050919050565b600060208201905081810360008301526115b581611426565b9050919050565b600060208201905081810360008301526115d581611449565b9050919050565b600060208201905081810360008301526115f58161146c565b9050919050565b600060208201905081810360008301526116158161148f565b9050919050565b60006020820190508181036000830152611635816114b2565b9050919050565b60006020820190508181036000830152611655816114d5565b9050919050565b60006020820190508181036000830152611675816114f8565b9050919050565b6000602082019050611691600083018461151b565b92915050565b600060a0820190506116ac600083018861151b565b6116b960208301876113e5565b6116c6604083018661151b565b6116d3606083018561151b565b6116e060808301846113e5565b9695505050505050565b600060c0820190506116ff600083018961151b565b61170c60208301886113e5565b611719604083018761151b565b611726606083018661151b565b61173360808301856113e5565b61174060a08301846113e5565b979650505050505050565b600082825260208201905092915050565b6000611767826117a6565b9050919050565b60008115159050919050565b60007fffffffff0000000000000000000000000000000000000000000000000000000082169050919050565b600073ffffffffffffffffffffffffffffffffffffffff82169050919050565b6000819050919050565b7f596f752063616e6e6f7420646561637469766174652074686973206c6973746960008201527f6e67000000000000000000000000000000000000000000000000000000000000602082015250565b7f596f752063616e6e6f742062757920796f7572206f776e20746f6b656e000000600082015250565b7f54686520746f6b656e20646f65736e27742062656c6f6e6720746f207468652060008201527f7472616e73616374696f6e2073656e6465720000000000000000000000000000602082015250565b7f496e76616c69642056616c756500000000000000000000000000000000000000600082015250565b7f5468652061646472657373206973206e6f74206f66206120657263373231206360008201527f6f6e747261637400000000000000000000000000000000000000000000000000602082015250565b7f54686520746f6b656e206973206e6f7420617070726f766564207965742e0000600082015250565b7f54686520746f6b656e20697320616c7265616479206c69737465640000000000600082015250565b7f4c697374696e67206e6f7420666f756e64000000000000000000000000000000600082015250565b6119938161175c565b811461199e57600080fd5b50565b6119aa8161176e565b81146119b557600080fd5b50565b6119c1816117c6565b81146119cc57600080fd5b5056fea2646970667358221220e4ed4487020200865b5051e69453d858aaa981db34502a7d7795069c9c6564ed64736f6c63430008040033",
  "linkReferences": {},
  "deployedLinkReferences": {}
}